:020000040800F2
:10000000681000209D0100084D220008BF21000853
:100010004922000835020008B9230008000000004A
:100020000000000000000000000000008B2200081B
:100030007F04000800000000892200088D220008CB
:10004000B7010008B7010008B7010008B7010008B0
:10005000B7010008B7010008B7010008B7010008A0
:10006000B7010008B7010008B7010008B701000890
:10007000B7010008B7010008B7010008B701000880
:10008000B7010008B7010008B7010008B701000870
:10009000A923000839020008B7010008B7010008C9
:1000A000B7010008B7010008B7010008B701000850
:1000B000B7010008B7010008B7010008B701000840
:1000C000B7010008B7010008B7010008B701000830
:1000D000B7010008B7010008B7010008B701000820
:1000E000B7010008B7010008B701000800000000D0
:1000F0000000000000000000000000000000000000
:10010000000000000000000000000000B70100082F
:10011000B7010008B7010008B7010008000000009F
:10012000B7010008B7010008B7010008B7010008CF
:10013000B7010008000000000000000000000000FF
:10014000B7010008B701000800000000000000002F
:10015000000000000000000000000000000000009F
:100160000000000000000000B7010008B70100080F
:10017000B7010008000000000000000000000000BF
:1001800000000000B7010008DFF80CD000F040F8D4
:1001900000480047A12B000868100020064880474F
:1001A00006480047FEE7FEE7FEE7FEE7FEE7FEE75C
:1001B000FEE7FEE7FEE7FEE72D23000889010008C1
:1001C00040EA01039B0703D009E008C9121F08C0D9
:1001D000042AFAD203E011F8013B00F8013B521E59
:1001E000F9D27047421C10F8011B0029FBD1801A7C
:1001F000704730B505460020034600E05B1C934283
:1002000005D2EC5CC85C201A01D1002CF6D130BDBF
:10021000064C074D06E0E06840F0010394E8070053
:1002200098471034AC42F6D3FFF7B2FFF82F00081E
:100230001830000800BFFEE710B5024800F036FA9B
:1002400010BD00006000002070B504460D46002679
:100250000DB9666B00E0A66B206800F5D87000EB66
:100260000510006800F00400B060B06840B9206874
:1002700000F5D87000EB05100068400D306007E015
:10028000206800F5D87000EB05100068C0087060A9
:10029000206800F5D87000EB0510006800F002003F
:1002A0004008F060206800F5D87000EB0510406849
:1002B00000F00F003061206800F5D87000EB0510E9
:1002C000406800F47F40000AF0613562206800F564
:1002D000D87000EB051080683075206800F5D87084
:1002E00000EB0510806800F47F40010A71752068FA
:1002F00000F5D87000EB0510806800F47F00010C59
:10030000B175206800F5D87000EB05108068010E0B
:10031000F175206800F5D87000EB0510C0683076E4
:10032000206800F5D87000EB0510C06800F47F402D
:10033000010A7176206800F5D87000EB0510C068DE
:1003400000F47F00010CB176206800F5D87000EB56
:100350000510C068010EF17665B92068C06840F0EC
:1003600020002168C8602068406920F00A002168E8
:1003700048610BE02068006940F0200021680861B6
:100380002068406920F050002168486194F83D00E1
:10039000222803D094F83D00322805D12068406916
:1003A00020F40F4021684861CDB994F83D004228FF
:1003B00004D0622806D072280CD107E0122084F8FD
:1003C0003D000BE0322084F83D0007E0522084F825
:1003D0003D0003E0012084F83D0000BF19E094F8DF
:1003E0003D00522804D0622806D072280CD107E0C4
:1003F000122084F83D000BE0222084F83D0007E045
:10040000422084F83D0003E0012084F83D0000BF55
:1004100000BF204600F00BFC002070BD10B5044664
:100420002068406920F001002168486194F83D008F
:10043000122805D12068406920F40F4021684861E6
:1004400094F83D00422804D0522806D072280CD1DE
:1004500007E0222084F83D000BE0322084F83D00C4
:1004600007E0622084F83D0003E0012084F83D00AD
:1004700000BF00BF204600F067FD002010BD7047A0
:1004800000200749C8610748006940F00400054999
:1004900008610846006940F04000086170470000AC
:1004A00040000020002002400021074AD161074996
:1004B000096941F00201054A116111464861096963
:1004C00041F04001116170474000002000200240CF
:1004D000034A126942F00102014B1A610180704720
:1004E0000020024000200F49C96801F010011029C6
:1004F00007D10D49C96941F002010B4AD16140F0B1
:1005000010000849C96801F00401042907D106490F
:10051000C96941F00101044AD16140F00400014978
:10052000C8607047002002404000002070B50446BB
:1005300000F07EFE054609E0601C38B124B100F0F1
:1005400077FE401BA04201D9032070BD0F48C06850
:1005500000F001000028EFD10C48C06800F0200036
:10056000202801D10949C8600848C06800F010007F
:10057000102805D00548C06800F00400042803D105
:10058000FFF7B0FF0120E0E70020DEE70020024097
:1005900030B5024600230C7D012000FA04F31068F8
:1005A000D0F8000240F001001468C4F8000210689E
:1005B000D0F81C0298431468C4F81C02C869E8B952
:1005C0001068D0F80C0298431468C4F80C028888AC
:1005D00080B28C8940EA0444106800F510704D69BF
:1005E00040F83540088880B20C8940EA044410681D
:1005F00000F510704D6900EBC5004460C869012822
:100600001DD11068D0F80C0218431468C4F80C020D
:10061000888880B20C8840EA0444106800F51070A5
:100620004D6940F83540888980B20C8940EA04441D
:10063000106800F510704D6900EBC50044608869D2
:1006400038B91068D0F8040298431468C4F804025A
:1006500006E01068D0F8040218431468C4F80402D5
:10066000086938B91068D0F8140298431468C4F8BF
:10067000140206E01068D0F8140218431468C4F895
:100680001402086A012806D11068D0F81C02184329
:100690001468C4F81C021068D0F8000220F00100B1
:1006A0001468C4F80002002030BD704770B50446DD
:1006B00000252068C06800F01000102809D12068CB
:1006C0004069C0F3C00020B145F4007510202168D6
:1006D000C8602068006900F01000102809D1206867
:1006E0004069C0F3801020B145F480651020216876
:1006F00008612068406900F0010088B320688068C4
:100700007449084088420BD02068806872490840CC
:10071000884205D0206880687049084088421FD10F
:100720002068806800F0020002280DD020688068F0
:1007300000F40070B0F5007F06D02068806800F4F7
:100740000030B0F5003F03D12046FFF767FE01E01F
:1007500045F4006520688068614908432168886025
:1007600020684069C0F3400040B12068C06800F0D4
:10077000030018B100212046FFF766FD206840699C
:10078000C0F3001040B12068006900F0030018B108
:1007900001212046FFF758FD206C28432064206883
:1007A000806900F0010068B120684069C0F3002052
:1007B00040B120684069C0F3C03018B1206C40F0EF
:1007C000010020642068806900F0020002280DD139
:1007D00020684069C0F3402040B120684069C0F300
:1007E000C03018B1206C40F002002064206880699D
:1007F00000F0040004280DD120684069C0F3802077
:1008000040B120684069C0F3C03018B1206C40F09E
:10081000040020642068806900F0700080B32068C4
:100820004069C0F3C02058B320684069C0F3C030AD
:1008300030B32068806900F0700040281BD006DCCF
:10084000102809D020280CD0302824D10EE05028C0
:1008500017D060281FD119E0206C40F008002064F8
:100860001AE0206C40F01000206415E0206C40F08D
:100870002000206410E0206C40F0400020640BE079
:1008800011E0206C40F08000206405E0206C40F412
:100890008070206400E000BF00BF2068806920F005
:1008A000700021688861206C90B12068406840F039
:1008B000040021684860012084F83D0020684069F8
:1008C00048F65B718843216848612046FFF7EDFEDA
:1008D00070BD0000010000040001000800000110CC
:1008E0001905010070B50446002600250CB9012049
:1008F00070BD94F83D0028B9002084F83C002046E3
:1009000000F0CEF8022084F83D002068006820F056
:100910000200216808602068006840F0010021683A
:10092000086000F085FC05460EE000F081FC401BED
:100930000A2809D9032084F83D0000BF002084F86C
:100940003C0000BF0320D3E72068406800F00100AE
:100950000028EAD02068406800F00100002875D027
:10096000A069012806D12068006840F08000216855
:10097000086005E02068006820F0800021680860B9
:10098000E069012806D12068006840F04000216835
:10099000086005E02068006820F0400021680860D9
:1009A000206A012806D12068006840F020002168F4
:1009B000086005E02068006820F0200021680860D9
:1009C000606A012806D12068006840F010002168A4
:1009D000086005E02068006820F0100021680860C9
:1009E000A06A012806D12068006840F0080021684C
:1009F000086005E02068006820F0080021680860B1
:100A0000E06A012806D12068006840F004002168EF
:100A1000086005E02068006820F004002168086094
:100A2000D4E9020108432169084361690843616808
:100A3000491E08432168C8612068006820F0010051
:100A40002168086000F0F4FB05460FE01AE000F0B2
:100A5000EFFB401B0A2809D9032084F83D0000BFA2
:100A6000002084F83C0000BF032041E72068406874
:100A700000F001000028EAD12068406800F0010081
:100A800000B90126012E06D100202064012084F83F
:100A90003D0000202CE7042084F83D00012027E7DA
:100AA00010B586B0044618492068884229D100BF95
:100AB0001648C06940F000701449C8610846C06912
:100AC00000F00070009000BF00BF00BF0846406902
:100AD00040F4003048610846406900F4003000905E
:100AE00000BF00BF4FF4C0500190022002900020D0
:100AF0000390032004900920059001A9C00600F08E
:100B0000ABFA06B010BD00000064004000100240C7
:100B1000024600BF92F83C00012801D10220704734
:100B2000012082F83C0000BFB1B992F83D002228B4
:100B30000BD092F83D00422807D092F83D00622881
:100B400003D092F83D00722806D100BF002082F841
:100B50003C0000BF0220E2E7012916D192F83D00D7
:100B600032280BD092F83D00522807D092F83D0071
:100B7000622803D092F83D00722806D100BF002001
:100B800082F83C0000BF0220C9E7C9B992F83D00D5
:100B9000122804D0322806D052280CD107E0422077
:100BA00082F83D000BE0622082F83D0007E07220F1
:100BB00082F83D0003E0222082F83D0000BF19E0EA
:100BC00092F83D00122804D0222806D042280CD1E9
:100BD00007E0522082F83D000BE0622082F83D00E1
:100BE00007E0722082F83D0003E0322082F83D00E9
:100BF00000BF00BF002010641068406940F40F403F
:100C00001368586100BF002082F83C0000BF31B972
:100C10001068406940F00A001368586105E01068E8
:100C2000406940F0500013685861002077E73EB5F6
:100C3000044600250020009001900290606B10B3E4
:100C4000606B006AF8B9606B008880B2ADF8000094
:100C5000606B007B8DF80200606B007C8DF80300F8
:100C600000BF05E0606B1430415D01A841556D1C6B
:100C70009DF80300A842F5D8684601F0B1FB0021B9
:100C80002046FFF745FF3EBD2DE9F04104460E46E4
:100C9000042500272068806800F08060B0F1806F34
:100CA0000DD02068806800F00060B0F1006F06D0C1
:100CB0002068806800F08050B0F1805F7ED100BF76
:100CC00094F83C00012802D10220BDE8F081012007
:100CD00084F83C0000BF94F83D00222804D032285C
:100CE00006D062280CD107E0422084F83D000BE0DA
:100CF000522084F83D0007E0722084F83D0003E0B4
:100D0000122084F83D0000BF00BF2068806800F01A
:100D1000806008B1002507E02068806800F000606E
:100D200008B1012500E00225206800F5C07000EB45
:100D30000510006800F00101206800F5C07000EBAC
:100D400005100160206B806898B9206800F5C070BC
:100D500000EB05100068216BC968226B128841EA1C
:100D600042510843216801F5C07101EB051108608B
:100D700015E0206800F5C07000EB05100068216BDD
:100D80008968226B526841EAC201226BD268114322
:100D90000843216801F5C07101EB05110860206B63
:100DA000007C00F00F00216B0861206800F5C07026
:100DB00000EB0510406820F00F0100E0B9E020686A
:100DC00000F5C07000EB05104160206800F5C070B0
:100DD00000EB05104168206B00690143206800F5B5
:100DE000C07000EB05104160206BC07D0106206BD8
:100DF000807D41EA0041206B407D41EA0021206B6B
:100E0000007D0143206800F5C07000EB0510816093
:100E1000206BC07E0106206B807E41EA0041206B82
:100E2000407E41EA0020216B097E0843216801F5DC
:100E3000C07101EB0511C860206800F5C07000EBBF
:100E40000510006840F00101206800F5C07000EB5B
:100E50000510016000F0ECF9074628E0701C30B383
:100E600026B100F0E5F9C01BB04220D9032084F878
:100E70003D0035B92068806840F0800021688860B6
:100E80000EE0012D06D12068806840F40040216802
:100E9000886005E02068806840F400002168886070
:100EA00000BF002084F83C0000BF03200DE74DB9CF
:100EB0002068806821490840884201D1012016E05D
:100EC000002014E0012D09D1206880681C490840E9
:100ED000884201D101200AE0002008E020688068F3
:100EE00018490840884201D1012000E00020002874
:100EF000B4D094F83D00422804D0522806D072287D
:100F00000CD107E0222084F83D000BE0322084F869
:100F10003D0007E0622084F83D0003E0012084F8F2
:100F20003D0000BF00BF00BF002084F83C0000BFB0
:100F3000CBE6042084F83D000120C6E60100000451
:100F40000001000800000110704731B500F070F991
:100F50000546009C601C00B1641C00BF00F068F9ED
:100F6000401BA042FAD338BD2DE9F04104460E469D
:100F70000127002500BF2648007E012802D102205B
:100F8000BDE8F08101202249087600BF20680128D1
:100F900012D14CF25030FFF7C9FA88BBFFF770FA54
:100FA0004CF25030FFF7C2FA07461A48006920F0A9
:100FB00004001849086123E04CF25030FFF7B6FAFC
:100FC000F0B94FF0FF303060656812E02846FFF757
:100FD0006BFA4CF25030FFF7A9FA07460D4800694A
:100FE00020F002000B4908610FB1356007E005F5FC
:100FF0000065D4E9011001EBC020A842E6D800BF8B
:1010000000BF00200249087600BF3846B8E700005C
:1010100040000020002002400348006940F08000AA
:10102000014908610020704700200240074800691C
:1010300000F0800028B1064804494860054848602F
:1010400001E0012070470020FCE700000020024082
:1010500023016745AB89EFCD78B503460022002414
:101060000020CBE0012696400D6805EA0604002C1E
:1010700072D04D68022D02D04D68122D13D1D608C2
:1010800003F1200555F826005507EE0E0F25B54053
:10109000A8435607F60E0D69B5402843D60803F15C
:1010A000200545F82600186856000325B540A843DA
:1010B0000D7905F003055600B540284318604D68CA
:1010C000012D08D04D68022D05D04D68112D02D09C
:1010D0004D68122D13D1986856000325B540A843DA
:1010E0005600CD68B5402843986058680125954062
:1010F000A8430D79C5F30015954028435860D8687A
:1011000056000325B540A84356008D68B5402843D6
:10111000D8604D6805F08055B5F1805F6DD100BF96
:10112000394DAD6945F00105374EB5613546AD69BC
:1011300005F00105009500BF00BF4FEAB6359608DF
:1011400055F8260095072E0F0F25B540A843B3F19B
:10115000904F02D1002515E04FE02C4DAB4201D15C
:1011600001250FE02A4DAB4201D102250AE0294DAD
:10117000AB4201D1032505E0274DAB4201D1042547
:1011800000E005259607360FB5402843234D960805
:1011900045F82600224D2868A0434D6805F48035A7
:1011A000B5F5803F00D120431D4D28602D1D2868D6
:1011B000A0434D6805F40035B5F5003F00D120434C
:1011C000174D2D1D28602D1D2868A0434D6805F47E
:1011D0008015B5F5801F00D12043114D08352860DA
:1011E0002D1D2868A0434D6805F40015B5F5001FB6
:1011F00000D120430A4D0C352860521C0D68D540A3
:10120000002D7FF42FAF78BD00100240000400488D
:1012100000080048000C0048001000480800014089
:10122000000401400AB1816100E081627047000062
:101230000148006870470000000000200248006874
:10124000401C0149086070470000002010B50848A4
:10125000006840F0100006490860032000F0A6F87E
:10126000002000F007F800F019F8002010BD000081
:101270000020024070B50446074800684FF47A71B8
:10128000B0FBF1F5284600F07CFF00222146501EFD
:1012900000F04DF8002070BD3400002008B500BFFC
:1012A0001B48806940F0010019498861084680693F
:1012B00000F00100009000BF00BF032000F076F8AE
:1012C000002211466FF00B0000F031F800221146A9
:1012D0006FF00A0000F02BF8002211466FF00900B1
:1012E00000F025F800221146501F00F020F80022DF
:1012F0001146101F00F01BF800221146901E00F04E
:1013000016F800221146501E00F011F808BD00002A
:101310000010024000BF00F01F020121914042096D
:10132000920002F1E022C2F8001100BF70472DE9DF
:10133000F05F80460D461646002700F089FF0746FD
:1013400039462A46334601F00700C0F1070ABAF1D0
:10135000040F02D94FF0040A01E0C0F1070AD14698
:1013600000F1040ABAF1070F02D24FF0000A01E0BF
:10137000A0F1030AD4464FF0010A0AFA09FAAAF1C9
:10138000010A0AEA020A0AFA0CFA4FF0010B0BFAF8
:101390000CFBABF1010B0BEA030B4AEA0B042146F1
:1013A000404600F05DFFBDE8F09F000000BF00F088
:1013B0000702064B19684FF6FF031940044B0B4315
:1013C00043EA0221014B196000BF70470CED00E0B9
:1013D0000000FA0570B504460D460026B4480068C2
:1013E00000F00700A8420ED2B148006820F00700C4
:1013F0002843AF4908600846006800F00700A8428B
:1014000001D0012070BD207800F00200022807D131
:10141000A848406820F0F000A1680843A54948604A
:10142000207800F0010000287CD0606801283BD1C2
:101430002020010391FAA1F1B1FA81F108430121C1
:10144000B1EB601F02D19B4800681DE02020010322
:1014500091FAA1F1B1FA81F108430221B1EB601FC9
:1014600002D19448006A0FE02020010391FAA1F113
:10147000B1FA81F108430421B1EB601F02D18D481C
:10148000406801E08B48406A20210A0392FAA2F2E8
:10149000B2FA82F2114301F01F020121914008408B
:1014A00000287CD10120ADE7606802283BD12020D4
:1014B000010591FAA1F1B1FA81F108430121B1EBE3
:1014C000601F02D17B4800681DE02020010591FAD1
:1014D000A1F1B1FA81F108430221B1EB601F02D101
:1014E0007448006A0FE02020010591FAA1F1B1FAD9
:1014F00081F108430421B1EB601F02D16D484068BF
:1015000001E06C48406A20210A0592FAA2F2B2FA80
:1015100082F2114301F01F02012191400840E8BB13
:1015200001206FE77EE02020022191FAA1F1B1FABB
:1015300081F108430121B1EB601F02D15D480068D1
:101540001DE02020022191FAA1F1B1FA81F10843B6
:101550000221B1EB601F02D15648006A0FE0202043
:10156000022191FAA1F1B1FA81F108430421B1EB12
:10157000601F02D14F48406801E04E48406A202178
:10158000022292FAA2F2B2FA82F2114301F01F0291
:1015900001219140084008B9012033E7FFE74548A1
:1015A000406820F003006168084342494860FFF743
:1015B0003FFE06466068012810D108E0FFF738FEBC
:1015C000801B41F28831884201D903201AE739484B
:1015D000406800F00C000428F0D123E06068022885
:1015E00010D108E0FFF724FE801B41F288318842C9
:1015F00001D9032006E72F48406800F00C000828B6
:10160000F0D10FE008E0FFF713FE801B41F28831B4
:10161000884201D90320F5E62648406800F00C0016
:101620000028F0D12248006800F00700A8420ED937
:101630001F48006820F0070028431D49086008463D
:10164000006800F00700A84201D00120DAE6207807
:1016500000F00400042807D11648406820F4E06038
:10166000E168084313494860207800F00800082822
:1016700008D11048406820F46050216940EAC10058
:101680000C49486000F022F80A49496801F0F0016D
:10169000F02292FAA2F2B2FA82F2D140064A515CEA
:1016A000C840064908600020FFF7E4FD0020A9E6D5
:1016B0000020024000100240E02F0008340000200B
:1016C00001480068704700003400002070B5002118
:1016D00000240022002300201A4D696801F00C0547
:1016E00065B3042D02D0082D27D101E0164827E06C
:1016F00001F470154FF4701696FAA6F6B6FA86F64F
:10170000F540124E735D0F4DED6A05F00F050F2683
:1017100096FAA6F6B6FA86F6F5400D4E745D01F41B
:1017200080352DB1084DB5FBF4F505FB03F202E061
:10173000084D03FB05F2104602E000BF024800BF5F
:1017400000BF70BD0010024000127A00B42F0008E4
:10175000C42F000800093D00F8B504460025207894
:1017600000F0010000287BD0FA48406800F00C002F
:1017700004280CD0F748406800F00C00082845D138
:10178000F448406800F48030B0F5803F3ED120201E
:10179000010391FAA1F1B1FA81F108430121B1EB02
:1017A000601F02D1EB4800681DE02020010391FA80
:1017B000A1F1B1FA81F108430221B1EB601F02D11E
:1017C000E448006A0FE02020010391FAA1F1B1FA88
:1017D00081F108430421B1EB601F02D1DD4840686C
:1017E00001E0DC48406A20210A0392FAA2F2B2FA30
:1017F00082F2114301F01F020121914008400028AC
:10180000B1D0606800282BD10120F8BD00BF60680E
:10181000B0F5803F06D1CF48006840F48030CD4914
:10182000086029E0606858B9CA48006820F4803030
:10183000C84908600846006820F4802008601BE062
:101840006068B0F5A02F0CD1C248006840F4802039
:10185000C04908600846006840F4803008600BE02A
:10186000A1E0BC48006820F48030BA49086008460E
:10187000006820F48020086000BFB648C06A20F0ED
:101880000F00A1680843B349C8626068A0B3FFF7BE
:10189000CFFC054606E0FFF7CBFC401B642801D9CE
:1018A0000320B2E72020010391FAA1F1B1FA81F1FE
:1018B00008430121B1EB601F02D1A64800681EE079
:1018C0002020010391FAA1F1B1FA81F1084302212C
:1018D000B1EB601F02D19F48006A10E02020010395
:1018E00091FAA1F1B1FA81F108430421B1EB601F33
:1018F00003D19848406802E010E09648406A2021F1
:101900000A0392FAA2F2B2FA82F2114301F01F0224
:101910000121914008400028BDD044E0FFF788FC39
:10192000054606E0FFF784FC401B642801D903202C
:101930006BE72020010391FAA1F1B1FA81F108438C
:101940000121B1EB601F02D1824800681DE0202018
:10195000010391FAA1F1B1FA81F108430221B1EB3F
:10196000601F02D17B48006A0FE02020010391FA3A
:10197000A1F1B1FA81F108430421B1EB601F02D15A
:101980007448406801E07348406A20210A0392FAD3
:10199000A2F2B2FA82F2114301F01F02012191403A
:1019A00008400028BED1207800F0020002285CD157
:1019B0006848406800F00C0050B16648406800F08C
:1019C0000C00082852D16348406800F48030E8BB1E
:1019D0002020022191FAA1F1B1FA81F108430121FD
:1019E000B1EB601F02D15B4800681DE0202002219E
:1019F00091FAA1F1B1FA81F108430221B1EB601F24
:101A000002D15448006A0FE02020022191FAA1F18E
:101A1000B1FA81F108430421B1EB601F02D14D48B6
:101A2000406801E04B48406A2021022292FAA2F26B
:101A3000B2FA82F2114301F01F02012191400840E5
:101A400028B12069012802D00120DEE60EE04148DD
:101A5000006820F0F800F82292FAA2F2B2FA82F2BC
:101A60006169914008433B490860B1E0206970B367
:101A7000012191FAA1F0B0FA80F0374A42F8201023
:101A8000FFF7D6FB054606E0FFF7D2FB401B022816
:101A900001D90320B9E62020022191FAA1F1B1FA7F
:101AA00081F108430121B1EB601F02D12948006890
:101AB0001EE02020022191FAA1F1B1FA81F1084340
:101AC0000221B1EB601F03D12248006A10E02CE034
:101AD0002020022191FAA1F1B1FA81F108430421F9
:101AE000B1EB601F02D11B48406801E01948406A11
:101AF0002021022292FAA2F2B2FA82F2114301F0FC
:101B00001F020121914008400028BDD01148006803
:101B100020F0F800F82292FAA2F2B2FA82F2616999
:101B2000914008430B49086052E00020012191FADE
:101B3000A1F1B1FA81F1084A42F82100FFF778FBE0
:101B400005460BE0FFF774FB401B022806D9032073
:101B50005BE600000010024000004242202002210B
:101B600091FAA1F1B1FA81F108430121B1EB601FB3
:101B700002D1FB4800681DE02020022191FAA1F16A
:101B8000B1FA81F108430221B1EB601F02D1F448A0
:101B9000006A0FE02020022191FAA1F1B1FA81F14F
:101BA00008430421B1EB601F02D1ED48406801E019
:101BB000EB48406A2021022292FAA2F2B2FA82F2A3
:101BC000114301F01F020121914008400028B9D1C2
:101BD000207800F00800082851D1A06980B30120C6
:101BE00090FAA0F1B1FA81F1DE4A02EB8101C1F86D
:101BF0008004FFF71DFB054606E0FFF719FB401BBD
:101C0000022801D9032000E66020022191FAA1F107
:101C1000B1FA81F108430121B1EB601F02D1D04834
:101C200000681EE06020022191FAA1F1B1FA81F171
:101C300008430221B1EB601F03D1C948006A10E0DC
:101C40001EE06020022191FAA1F1B1FA81F108436E
:101C50000421B1EB601F02D1C148406801E0C048D7
:101C6000406A6021022292FAA2F2B2FA82F2114391
:101C700001F01F020121914008400028BDD04FE033
:101C80000020012191FAA1F1B1FA81F1B54A02EBEC
:101C90008101C1F88004FFF7CBFA054606E0FFF7A3
:101CA000C7FA401B022801D90320AEE560200221BB
:101CB00091FAA1F1B1FA81F108430121B1EB601F62
:101CC00002D1A74800681DE06020022191FAA1F12D
:101CD000B1FA81F108430221B1EB601F02D1A048A3
:101CE000006A0FE06020022191FAA1F1B1FA81F1BE
:101CF00008430421B1EB601F02D19948406801E01C
:101D00009748406A6021022292FAA2F2B2FA82F265
:101D1000114301F01F020121914008400028BED16B
:101D2000207800F00400042873D100268C48C06994
:101D300000F0805070B900BF8948C06940F0805001
:101D40008749C8610846C06900F08050009000BF14
:101D500000BF01268448006800F48070B0B9824852
:101D6000006840F4807080490860FFF761FA05461A
:101D700006E0FFF75DFA401B642801D9032044E523
:101D80007948006800F480700028F2D000BFE06855
:101D9000012806D17248006A40F0010070490862CB
:101DA00027E0E06858B96E48006A20F001006C49ED
:101DB00008620846006A20F00400086219E0E06842
:101DC00005280BD16648006A40F0040064490862A7
:101DD0000846006A40F0010008620AE06048006AB4
:101DE00020F001005E4908620846006A20F0040005
:101DF000086200BFE068B8B3FFF71AFA054609E0C9
:101E0000FFF716FA401B41F28831884202D90320BD
:101E1000FBE48BE04020022191FAA1F1B1FA81F1BB
:101E200008430121B1EB601F02D14D4800681EE05C
:101E30004020022191FAA1F1B1FA81F10843022177
:101E4000B1EB601F02D14648006A10E04020022139
:101E500091FAA1F1B1FA81F108430421B1EB601FBD
:101E600003D13F48406802E010E03D48406A40210D
:101E7000022292FAA2F2B2FA82F2114301F01F0298
:101E80000121914008400028BAD046E0FFF7D0F980
:101E9000054608E0FFF7CCF9401B41F28831884243
:101EA00001D90320B1E44020022191FAA1F1B1FA55
:101EB00081F108430121B1EB601F02D1284800687D
:101EC0001DE04020022191FAA1F1B1FA81F108430D
:101ED0000221B1EB601F02D12148006A0FE04020CF
:101EE000022191FAA1F1B1FA81F108430421B1EB89
:101EF000601F02D11A48406801E01948406A402139
:101F0000022292FAA2F2B2FA82F2114301F01F0207
:101F10000121914008400028BCD1012E05D1104874
:101F2000C06920F080500E49C86100BFE0690028F8
:101F300074D00B48406800F00C0008286FD0E069AE
:101F400002286DD100204FF0807191FAA1F1B1FA11
:101F500081F1044A42F82100FFF76AF905460CE0D6
:101F6000001002400000424200700040FFF760F99C
:101F7000401B022801D9032047E42020010591FAE3
:101F8000A1F1B1FA81F108430121B1EB601F02D147
:101F90006F4800681DE02020010591FAA1F1B1FA17
:101FA00081F108430221B1EB601F02D16848006A49
:101FB0000FE02020010591FAA1F1B1FA81F1084367
:101FC0000421B1EB601F02D16148406801E0604824
:101FD000406A20210A0592FAA2F2B2FA82F2114373
:101FE00001F01F020121914008400028BED1D4E930
:101FF000081008435649496821F4741108435449AC
:1020000048600121080690FAA0F0B0FA80F0514A29
:1020100042F82010FFF70CF9054609E095E092E040
:1020200041E0FFF705F9401B022801D9032038E4FD
:102030002020010591FAA1F1B1FA81F108430121B3
:10204000B1EB601F02D1424800681DE0202001056D
:1020500091FAA1F1B1FA81F108430221B1EB601FBD
:1020600002D13B48006A0FE02020010591FAA1F15E
:10207000B1FA81F108430421B1EB601F02D1344869
:10208000406801E03248406A20210A0592FAA2F233
:10209000B2FA82F2114301F01F020121914008407F
:1020A0000028BED051E000214FF0807090FAA0F0DF
:1020B000B0FA80F0274A42F82010FFF7B9F8054639
:1020C00006E0FFF7B5F8401B022801D903202FE4F2
:1020D0002020010591FAA1F1B1FA81F10843012113
:1020E000B1EB601F02D11A4800681DE020200105F5
:1020F00091FAA1F1B1FA81F108430221B1EB601F1D
:1021000002D11348006A0FE02020010591FAA1F1E5
:10211000B1FA81F108430421B1EB601F02D10C48F0
:10212000406801E00A48406A20210A0592FAA2F2BA
:10213000B2FA82F2114301F01F02012191400840DE
:102140000028BED101E001207FE400207DE40000F2
:102150000010024000004242042808D14FF0E02164
:10216000096941F004014FF0E022116107E04FF0EE
:10217000E021096921F004014FF0E022116170476C
:10218000704770B504462546681EB0F1807F01D3C4
:1021900001200FE0681E4FF0E02148610F214FF051
:1021A000FF3000F05DF800204FF0E021886107204B
:1021B0000861002070BD10B5FFF7E2FF10BD00BF41
:1021C000FEE7000000B587B000BF1D48406940F43D
:1021D00080001B4948610846406900F48000019076
:1021E00000BF00BF00BF0846406940F400304861AE
:1021F0000846406900F40030019000BF00BF00BFF6
:102200000846406940F4802048610846406900F46F
:102210008020019000BF00BF00224FF440710948A8
:10222000FFF700F84FF44070029001200390002067
:102230000490059002A90348FEF70EFF07B000BD09
:10224000001002400004004800BFFEE77047000095
:1022500002480068C0F30220704700000CED00E067
:1022600010B5002807DA0A07140E054A00F00F031C
:102270001B1FD45403E00A07130E024A135410BD67
:1022800018ED00E000E400E07047704710B5FEF77D
:10229000D5FFFFF790FF10BD10B590B0012006905C
:1022A0004FF4A02007900020089001200A900220FF
:1022B0000D90C1030E914FF4E0110F9106A8FFF7A6
:1022C0004BFA18B1932115A000F078F80F20019077
:1022D00002200290002003904FF4806004900020C0
:1022E0000590022101A8FFF775F818B1A1210BA0F4
:1022F00000F064F8FFF7E4F94FF47A71B0FBF1F401
:102300002046FFF73EFF0420FFF726FF002211467C
:10231000501EFFF70CF810B010BD00002E2E2F53EA
:1023200072632F6D61696E2E6300000019480068AA
:1023300040F47000174908601748006840F0010039
:102340001549086008464068144908401249486029
:1023500008460068124908400F49086008460068AE
:1023600020F4802008600846406820F4FE004860A1
:102370000846C06A20F00F00C8620846006B094991
:1023800008400549086300208860C8030149803976
:102390000860704788ED00E0001002400CC07FF834
:1023A000FFFFF6FECCFC00FF10B50248FEF77EF9F9
:1023B00010BD00006000002000BFFEE700BFFEE788
:1023C00002E008C8121F08C1002AFAD170477047FE
:1023D000002001E001C1121F002AFBD1704700005C
:1023E000F0B587B00446258800200490059006903B
:1023F000A44AD2E900109268CDE90202019105F0E9
:102400007F00A149098888420ED005F07F007F280F
:1024100008D1082202A9201DFDF7EBFE10B901200A
:1024200000F040FB07B0F0BD9848007858B9202173
:10243000084600F02BFC96A000F067FC0A21FF2064
:1024400000F024FCEEE7E81120B102287ED0042839
:102450007DD103E0204600F089FC0FE12079801156
:1024600000B1DFE72079212830D16179A07901EB33
:102470000021E07901EB0041207A01EB00608A49FC
:102480000860617AA07A01EB0021E07A01EB00405C
:10249000864908600020864908607B48008800F56E
:1024A000207080B2ADF8100008208DF81300602075
:1024B0008DF81400D4F80520CDF81520B4F80920C3
:1024C000ADF81920E17A8DF81B108BE0207900F02F
:1024D0000F00E8BB764800684FF48C61B0FBF1F266
:1024E00001FB120073490144D4F805200A60B4F8D6
:1024F00009208A80E07A88716D480068C01D6C49A7
:102500000860084600684FF48C61B0FBF1F201FBF3
:10251000120058B94A1067496348006800F004FB8C
:102520006148006800F58C605F4908605648008883
:1025300000F5207080B2ADF8100008208DF813006F
:1025400020792030C0B28DF814004BE04EE094E0CA
:10255000FFE7207900F00F00401C0921A1EB60008B
:10256000C6B2534800684FF48C61B0FBF1F201FB36
:102570001200504947183246611D3846FDF720FECB
:102580004B48006830444A490860084600684FF4E8
:102590008C61B0FBF1F201FB1200401C47083A4687
:1025A00044494148006800F0BFFA3748008800F508
:1025B000207080B2ADF8100008208DF8130020794B
:1025C00000F0F0002030C0B28DF81400202102206D
:1025D00000F05CFB38A000F098FB0A21FF2000F01F
:1025E00055FB00BF04A800F0DBF847E02079C011DC
:1025F00000B117E72079402833D12348008800F53F
:10260000C07080B2ADF8100008208DF81300617919
:10261000A07901EB0021E07901EB0041207A01EB88
:1026200000602B490860617AA07A01EB0021E07A12
:1026300001EB00402749086000202749086041203D
:102640008DF81400D4F80520CDF81520B4F8092031
:10265000ADF81920E17A8DF81B1004A800F0A0F85D
:102660000AE02079602802D02079702804D12179ED
:102670006039C8B200F0DEFB00E000BF00BF00BF61
:10268000D0E60000D42F0008040000203000002015
:102690002057616974696E67207472696767657233
:1026A0002E2E2E2120000000180000201C000020EB
:1026B00020000020A400002020446F776E6C6F6122
:1026C0006420636F6D706C65746564212000000088
:1026D00024000020280000202C00002010B58AB023
:1026E000044600212448C1604FF4C021016100214B
:1026F00041611C2000F094FA1F490863242000F077
:102700008FFA1D494863242000F08AFA1A49886329
:102710000420486008460460002181608161C16135
:102720000162416281620121C162FEF7DBF818B1EA
:10273000B52112A0FFF742FE00200590069001206F
:1027400007900020009001900290039004900120D7
:10275000089069460848FDF71BFF18B1C62107A07D
:10276000FFF72CFE00210448FEF7D2F91420FEF7F3
:10277000D1FD00200AB010BD600000202E2E5C624A
:102780006F6F746C6F6465722D6465766963655CE8
:1027900063616E5F6472697665722E63000000008B
:1027A00070B5044620881549096B0860002013495C
:1027B000096B4860A0781149096BC86000200F4977
:1027C000096B8860E0780D49096B0861002507E016
:1027D000201D415D0948006B14304155681CC5B28D
:1027E000E078A842F4DC0A210448FEF74DFA0646D8
:1027F0000EB9012070BD0020FCE700006000002041
:1028000000B54FF480720249024800F080F900BD23
:102810006409002000F8010810B54FF480710648E3
:1028200000F05CF908B9002010BD8022034902487D
:1028300000F07AF9F8E7000000F8010864090020C8
:10284000014800887047000004000020014800781B
:10285000704700003000002010B5FFF7D1FF13488B
:10286000D0F8F400124908600846006838B10846FC
:102870000068012803D001200E49088012E00B48AF
:10288000D0F8F0000C4908600848D0F8F8000B496F
:1028900008600648D0F8FC00094908600348008831
:1028A0000449088001200349088010BD6409002004
:1028B0000C00002004000020080000201000002070
:1028C0001400002010B51D480068012826D12021E1
:1028D000022000F0DBF91AA000F017FA0A21FF200D
:1028E00000F0D4F91F48006800681F490840B0F1A3
:1028F000005F20D172B61B48006844681949096816
:10290000086880F3088800BF4FF0E020006920F0DD
:1029100001004FF0E0210861A0470CE020212120B8
:1029200000F0B4F911A000F0F0F90A21FF2000F046
:10293000ADF9002010BD0120FCE700000C000020D4
:1029400020507265706172656420746F20676F201B
:10295000696E746F206170706C69636174696F6E09
:1029600021200000100000200000FE2F204E6F20CC
:1029700076616C6964206669726D77617265212089
:10298000000000001CB504468DF8004004F0010072
:1029900040B118480068CDF80100052269460120C1
:1029A00000F026FA04F00200022808D1124800685C
:1029B000CDF8010005226946012000F019FA04F063
:1029C0000400042808D10D480068CDF80100052254
:1029D0006946012000F00CFA04F00800082808D12C
:1029E00007480068CDF8010005226946012000F083
:1029F000FFF91CBD080000200C0000201000002082
:102A0000140000207CB5044665798DF80050012043
:102A10008DF80100012D06D0022D0ED0042D16D008
:102A2000082D28D11DE01A48D4F80610C0F8F0107F
:102A3000D0F8F0001749086021E01548D4F80610D6
:102A4000C0F8F410D0F8F4001349086017E01048FB
:102A5000D4F80610C0F8F810D0F8F8000F49086054
:102A60000DE00B48D4F80610C0F8FC10D0F8FC00BC
:102A70000B49086003E000208DF8010000BF00BF93
:102A800002226946104600F0B3F9FFF7C5FE7CBD8F
:102A900064090020080000200C0000201000002025
:102AA000140000203EB504460A480470012C10D1E1
:102AB0008020ADF8000000208DF8020001208DF884
:102AC0000300054800788DF804006846FFF768FEAB
:102AD00000BF3EBD30000020040000207FB504464A
:102AE0000D460026002000900190029405F500603C
:102AF000C00A0390FEF79AFA694601A8FEF734FA75
:102B000000B90126FEF788FA304604B070BD30B532
:102B100003461C46002002E0255C0D54401C9042F8
:102B2000FAD3012030BD00002DE9F04105460E46E4
:102B300017464FF00008FEF779FA002418E036F83F
:102B40001410022202FB0450FDF7C2FC4CF250307C
:102B5000FDF7ECFC80460948006920F001000749B8
:102B60000861B8F1000F02D00020BDE8F081641CBC
:102B7000BC42E4D3FEF750FA0120F6E70020024001
:102B800001460A2903DA01F13000C0B2704710296A
:102B900003DA01F13700C0B2F8E70020F6E70000E1
:102BA000FEF754FBFFF778FBFFF70CFB1548FFF728
:102BB00095FDFFF751FE4FF4FA70FEF7C6F9FFF7E7
:102BC00045FE88B9FFF77EFEC8B90120FFF76AFF0E
:102BD0002021022000F05AF80BA000F096F80A21FC
:102BE000FF2000F053F80AE02021022000F04EF808
:102BF00005A000F08AF80A21FF2000F047F800BF86
:102C0000FEE700000064004020476F20696E746F8B
:102C100020626F6F746C6F61646572212000000028
:102C2000F0B50B30154D20F007010024144A0FE0D9
:102C300003688B420BD38B4205D95E1A4318476851
:102C4000C3E9006700E04368136002C004E0021DAE
:102C500010680028ECD12046002802D1286808B16D
:102C60000020F0BD064A07481060074A121A22F0F9
:102C70000702C0E9002401202860D7E73C000020BB
:102C8000380000206C0A0020680C00202DE9FE436B
:102C900006460F46002000900190029080460024D6
:102CA00030222146641C0DF8012078222146641C44
:102CB0000DF80120012516E02020A0EB850026FA62
:102CC00000F000F00F0212B9B8F1010F09D110465F
:102CD000FFF756FF2146631CDCB20DF801004FF0F0
:102CE0000108681CC5B2082DE6DD2046611CCCB287
:102CF0000DF8007000222046611CCCB20DF80020B7
:102D0000684600F002F8BDE8FE833EB50546284659
:102D1000FDF768FA84B22544FFF792FD00F5407094
:102D200080B2ADF8000000208DF8020008208DF878
:102D300003000AE0281B0168019140680290A4F199
:102D4000080084B26846FFF72BFD082CF2DCE0B2E5
:102D50008DF80300291B224601A8FDF731FA002156
:102D600001A801556846FFF71BFD3EBD2DE9F04166
:102D700004462779012F06D0022F08D0032F0AD04E
:102D8000042F2CD123E06079FFF7FCFD28E02046DA
:102D9000FFF738FE24E06179A07901EB0021E079AA
:102DA00001EB0041207A01EB0065617AA07A01EB2A
:102DB0000021E07A01EB004086B231462846FFF759
:102DC0008DFE01220849032000F012F808E0FFF709
:102DD00079FD01220549042000F00AF800E000BF57
:102DE00000BFBDE8F081000031000020320000206B
:102DF000FEB505460E4614460D480088803080B268
:102E0000ADF8000000208DF80200601CC0B28DF803
:102E100003008DF80450002004E0335C411C01AA3B
:102E20005354C8B2A042F8DB6846FFF7B9FCFEBDB8
:102E3000040000203EB5044600200090019002905E
:102E40005248008800F5C07080B2ADF80000002044
:102E50008DF802008DF8044008208DF803004C48DE
:102E600000684FF48C61B0FBF1F201FB120048BB2B
:102E70004848006846490968401AB0F58C6F0DD97A
:102E80004FF48C62444945480068FFF740FE4348D0
:102E9000006800F58C604149086013E03D48006817
:102EA0003B490968421A3C493C480068FFF72FFE3D
:102EB0003848006836490968401A384909680844A2
:102EC00036490860334800683149096888420BD1A7
:102ED00020210220FFF7DAFE31A0FFF716FF0A21BA
:102EE000FF20FFF7D3FE3EBD2A4800682849096845
:102EF000401A07282CD89DF8040026490968244A5E
:102F00001268891AC1F109010122C2EB410108448A
:102F1000C0B28DF8040000200EE01D4909684FF48E
:102F20008C62B1FBF2F302FB131101441A4A535CA9
:102F300001A9421C8B54401C16490968144A1268A6
:102F4000891A8142E9D8134800681149086017E0DE
:102F500000200EE00E4909684FF48C62B1FBF2F3D9
:102F600002FB131101440C4A535C01A9421C8B540F
:102F7000401C0728EED306480068C01D04490860BD
:102F80006846FFF70DFC00BFADE70000040000201D
:102F90002C00002028000020040500202400002030
:102FA0002055706C6F616420636F6D706C65746523
:102FB0006421200002030405060708090A0B0C0D12
:102FC0000E0F10100102030405060708090A0B0C76
:102FD0000D0E0F10FF000008225A584657504D4A58
:102FE00000000000000000000102030406070809B9
:102FF0000000000001020304183000080000002057
:1030000040000000C02300085830000840000020A5
:1030100028100000D023000800000000010000007C
:1030200078563412000000000050000864000000D0
:103030000000000000000000000000000000000090
:1030400000000000000000000001000000127A00F3
:08305000000000000000000078
:040000050800018965
:00000001FF
